{
  "_format": "hh-sol-artifact-1",
  "contractName": "Upload",
  "sourceName": "contracts/Upload.sol",
  "abi": [
    {
      "inputs": [
        {
          "internalType": "address",
          "name": "user",
          "type": "address"
        },
        {
          "internalType": "string",
          "name": "url",
          "type": "string"
        },
        {
          "internalType": "string",
          "name": "name",
          "type": "string"
        }
      ],
      "name": "add",
      "outputs": [],
      "stateMutability": "nonpayable",
      "type": "function"
    },
    {
      "inputs": [
        {
          "internalType": "address",
          "name": "user",
          "type": "address"
        }
      ],
      "name": "allow",
      "outputs": [],
      "stateMutability": "nonpayable",
      "type": "function"
    },
    {
      "inputs": [
        {
          "internalType": "address",
          "name": "user",
          "type": "address"
        }
      ],
      "name": "disallow",
      "outputs": [],
      "stateMutability": "nonpayable",
      "type": "function"
    },
    {
      "inputs": [
        {
          "internalType": "address",
          "name": "_user",
          "type": "address"
        }
      ],
      "name": "display",
      "outputs": [
        {
          "components": [
            {
              "internalType": "string",
              "name": "url",
              "type": "string"
            },
            {
              "internalType": "string",
              "name": "name",
              "type": "string"
            }
          ],
          "internalType": "struct Upload.FileData[]",
          "name": "",
          "type": "tuple[]"
        }
      ],
      "stateMutability": "view",
      "type": "function"
    },
    {
      "inputs": [],
      "name": "shareAccess",
      "outputs": [
        {
          "components": [
            {
              "internalType": "address",
              "name": "user",
              "type": "address"
            },
            {
              "internalType": "bool",
              "name": "access",
              "type": "bool"
            }
          ],
          "internalType": "struct Upload.Access[]",
          "name": "",
          "type": "tuple[]"
        }
      ],
      "stateMutability": "view",
      "type": "function"
    }
  ],
  "bytecode": "0x608060405234801561001057600080fd5b506113ac806100206000396000f3fe608060405234801561001057600080fd5b50600436106100575760003560e01c806346bc7fd91461005c578063a9ed9cb814610078578063bc8bef8114610094578063eb39113f146100b2578063ff9913e8146100e2575b600080fd5b61007660048036038101906100719190610e55565b6100fe565b005b610092600480360381019061008d9190610ee0565b6101bb565b005b61009c6103e4565b6040516100a99190611015565b60405180910390f35b6100cc60048036038101906100c79190610ee0565b6104ed565b6040516100d991906111c5565b60405180910390f35b6100fc60048036038101906100f79190610ee0565b6107ad565b005b6000808473ffffffffffffffffffffffffffffffffffffffff1673ffffffffffffffffffffffffffffffffffffffff16815260200190815260200160002060405180604001604052808481526020018381525090806001815401808255809150506001900390600052602060002090600202016000909190919091506000820151816000019080519060200190610196929190610bfa565b5060208201518160010190805190602001906101b3929190610bfa565b505050505050565b6000600160003373ffffffffffffffffffffffffffffffffffffffff1673ffffffffffffffffffffffffffffffffffffffff16815260200190815260200160002060008373ffffffffffffffffffffffffffffffffffffffff1673ffffffffffffffffffffffffffffffffffffffff16815260200190815260200160002060006101000a81548160ff0219169083151502179055506000600260003373ffffffffffffffffffffffffffffffffffffffff1673ffffffffffffffffffffffffffffffffffffffff16815260200190815260200160002080549050905060005b818110156103df578273ffffffffffffffffffffffffffffffffffffffff16600260003373ffffffffffffffffffffffffffffffffffffffff1673ffffffffffffffffffffffffffffffffffffffff168152602001908152602001600020828154811061030a576103096111e7565b5b9060005260206000200160000160009054906101000a900473ffffffffffffffffffffffffffffffffffffffff1673ffffffffffffffffffffffffffffffffffffffff1614156103cc576000600260003373ffffffffffffffffffffffffffffffffffffffff1673ffffffffffffffffffffffffffffffffffffffff16815260200190815260200160002082815481106103a7576103a66111e7565b5b9060005260206000200160000160146101000a81548160ff0219169083151502179055505b80806103d79061124f565b91505061029a565b505050565b6060600260003373ffffffffffffffffffffffffffffffffffffffff1673ffffffffffffffffffffffffffffffffffffffff168152602001908152602001600020805480602002602001604051908101604052809291908181526020016000905b828210156104e4578382906000526020600020016040518060400160405290816000820160009054906101000a900473ffffffffffffffffffffffffffffffffffffffff1673ffffffffffffffffffffffffffffffffffffffff1673ffffffffffffffffffffffffffffffffffffffff1681526020016000820160149054906101000a900460ff16151515158152505081526020019060010190610445565b50505050905090565b60603373ffffffffffffffffffffffffffffffffffffffff168273ffffffffffffffffffffffffffffffffffffffff1614806105af5750600160008373ffffffffffffffffffffffffffffffffffffffff1673ffffffffffffffffffffffffffffffffffffffff16815260200190815260200160002060003373ffffffffffffffffffffffffffffffffffffffff1673ffffffffffffffffffffffffffffffffffffffff16815260200190815260200160002060009054906101000a900460ff165b6105ee576040517f08c379a00000000000000000000000000000000000000000000000000000000081526004016105e5906112f5565b60405180910390fd5b6000808373ffffffffffffffffffffffffffffffffffffffff1673ffffffffffffffffffffffffffffffffffffffff168152602001908152602001600020805480602002602001604051908101604052809291908181526020016000905b828210156107a2578382906000526020600020906002020160405180604001604052908160008201805461067f90611344565b80601f01602080910402602001604051908101604052809291908181526020018280546106ab90611344565b80156106f85780601f106106cd576101008083540402835291602001916106f8565b820191906000526020600020905b8154815290600101906020018083116106db57829003601f168201915b5050505050815260200160018201805461071190611344565b80601f016020809104026020016040519081016040528092919081815260200182805461073d90611344565b801561078a5780601f1061075f5761010080835404028352916020019161078a565b820191906000526020600020905b81548152906001019060200180831161076d57829003601f168201915b5050505050815250508152602001906001019061064c565b505050509050919050565b60018060003373ffffffffffffffffffffffffffffffffffffffff1673ffffffffffffffffffffffffffffffffffffffff16815260200190815260200160002060008373ffffffffffffffffffffffffffffffffffffffff1673ffffffffffffffffffffffffffffffffffffffff16815260200190815260200160002060006101000a81548160ff021916908315150217905550600360003373ffffffffffffffffffffffffffffffffffffffff1673ffffffffffffffffffffffffffffffffffffffff16815260200190815260200160002060008273ffffffffffffffffffffffffffffffffffffffff1673ffffffffffffffffffffffffffffffffffffffff16815260200190815260200160002060009054906101000a900460ff1615610a66576000600260003373ffffffffffffffffffffffffffffffffffffffff1673ffffffffffffffffffffffffffffffffffffffff16815260200190815260200160002080549050905060005b81811015610a5f578273ffffffffffffffffffffffffffffffffffffffff16600260003373ffffffffffffffffffffffffffffffffffffffff1673ffffffffffffffffffffffffffffffffffffffff168152602001908152602001600020828154811061098a576109896111e7565b5b9060005260206000200160000160009054906101000a900473ffffffffffffffffffffffffffffffffffffffff1673ffffffffffffffffffffffffffffffffffffffff161415610a4c576001600260003373ffffffffffffffffffffffffffffffffffffffff1673ffffffffffffffffffffffffffffffffffffffff1681526020019081526020016000208281548110610a2757610a266111e7565b5b9060005260206000200160000160146101000a81548160ff0219169083151502179055505b8080610a579061124f565b91505061091a565b5050610bf7565b6001600360003373ffffffffffffffffffffffffffffffffffffffff1673ffffffffffffffffffffffffffffffffffffffff16815260200190815260200160002060008373ffffffffffffffffffffffffffffffffffffffff1673ffffffffffffffffffffffffffffffffffffffff16815260200190815260200160002060006101000a81548160ff021916908315150217905550600260003373ffffffffffffffffffffffffffffffffffffffff1673ffffffffffffffffffffffffffffffffffffffff16815260200190815260200160002060405180604001604052808373ffffffffffffffffffffffffffffffffffffffff168152602001600115158152509080600181540180825580915050600190039060005260206000200160009091909190915060008201518160000160006101000a81548173ffffffffffffffffffffffffffffffffffffffff021916908373ffffffffffffffffffffffffffffffffffffffff16021790555060208201518160000160146101000a81548160ff02191690831515021790555050505b50565b828054610c0690611344565b90600052602060002090601f016020900481019282610c285760008555610c6f565b82601f10610c4157805160ff1916838001178555610c6f565b82800160010185558215610c6f579182015b82811115610c6e578251825591602001919060010190610c53565b5b509050610c7c9190610c80565b5090565b5b80821115610c99576000816000905550600101610c81565b5090565b6000604051905090565b600080fd5b600080fd5b600073ffffffffffffffffffffffffffffffffffffffff82169050919050565b6000610cdc82610cb1565b9050919050565b610cec81610cd1565b8114610cf757600080fd5b50565b600081359050610d0981610ce3565b92915050565b600080fd5b600080fd5b6000601f19601f8301169050919050565b7f4e487b7100000000000000000000000000000000000000000000000000000000600052604160045260246000fd5b610d6282610d19565b810181811067ffffffffffffffff82111715610d8157610d80610d2a565b5b80604052505050565b6000610d94610c9d565b9050610da08282610d59565b919050565b600067ffffffffffffffff821115610dc057610dbf610d2a565b5b610dc982610d19565b9050602081019050919050565b82818337600083830152505050565b6000610df8610df384610da5565b610d8a565b905082815260208101848484011115610e1457610e13610d14565b5b610e1f848285610dd6565b509392505050565b600082601f830112610e3c57610e3b610d0f565b5b8135610e4c848260208601610de5565b91505092915050565b600080600060608486031215610e6e57610e6d610ca7565b5b6000610e7c86828701610cfa565b935050602084013567ffffffffffffffff811115610e9d57610e9c610cac565b5b610ea986828701610e27565b925050604084013567ffffffffffffffff811115610eca57610ec9610cac565b5b610ed686828701610e27565b9150509250925092565b600060208284031215610ef657610ef5610ca7565b5b6000610f0484828501610cfa565b91505092915050565b600081519050919050565b600082825260208201905092915050565b6000819050602082019050919050565b610f4281610cd1565b82525050565b60008115159050919050565b610f5d81610f48565b82525050565b604082016000820151610f796000850182610f39565b506020820151610f8c6020850182610f54565b50505050565b6000610f9e8383610f63565b60408301905092915050565b6000602082019050919050565b6000610fc282610f0d565b610fcc8185610f18565b9350610fd783610f29565b8060005b83811015611008578151610fef8882610f92565b9750610ffa83610faa565b925050600181019050610fdb565b5085935050505092915050565b6000602082019050818103600083015261102f8184610fb7565b905092915050565b600081519050919050565b600082825260208201905092915050565b6000819050602082019050919050565b600081519050919050565b600082825260208201905092915050565b60005b8381101561109d578082015181840152602081019050611082565b838111156110ac576000848401525b50505050565b60006110bd82611063565b6110c7818561106e565b93506110d781856020860161107f565b6110e081610d19565b840191505092915050565b6000604083016000830151848203600086015261110882826110b2565b9150506020830151848203602086015261112282826110b2565b9150508091505092915050565b600061113b83836110eb565b905092915050565b6000602082019050919050565b600061115b82611037565b6111658185611042565b93508360208202850161117785611053565b8060005b858110156111b35784840389528151611194858261112f565b945061119f83611143565b925060208a0199505060018101905061117b565b50829750879550505050505092915050565b600060208201905081810360008301526111df8184611150565b905092915050565b7f4e487b7100000000000000000000000000000000000000000000000000000000600052603260045260246000fd5b7f4e487b7100000000000000000000000000000000000000000000000000000000600052601160045260246000fd5b6000819050919050565b600061125a82611245565b91507fffffffffffffffffffffffffffffffffffffffffffffffffffffffffffffffff82141561128d5761128c611216565b5b600182019050919050565b600082825260208201905092915050565b7f596f7520446f6e27742068617665206163636573730000000000000000000000600082015250565b60006112df601583611298565b91506112ea826112a9565b602082019050919050565b6000602082019050818103600083015261130e816112d2565b9050919050565b7f4e487b7100000000000000000000000000000000000000000000000000000000600052602260045260246000fd5b6000600282049050600182168061135c57607f821691505b602082108114156113705761136f611315565b5b5091905056fea2646970667358221220d58b59b8406c3de6022686600cd46fa4b809160605e62dd49d71b162b617d2ac64736f6c63430008090033",
  "linkReferences": {},
  "deployedLinkReferences": {}
}