{
  "_format": "hh-sol-artifact-1",
  "contractName": "Upload2",
  "sourceName": "contracts/Upload2.sol",
  "abi": [
    {
      "inputs": [
        {
          "internalType": "string",
          "name": "_url",
          "type": "string"
        },
        {
          "internalType": "string",
          "name": "_name",
          "type": "string"
        },
        {
          "internalType": "string",
          "name": "_timeStamp",
          "type": "string"
        },
        {
          "internalType": "string",
          "name": "_size",
          "type": "string"
        },
        {
          "internalType": "string",
          "name": "TransactionString",
          "type": "string"
        }
      ],
      "name": "AddFile",
      "outputs": [],
      "stateMutability": "nonpayable",
      "type": "function"
    },
    {
      "inputs": [
        {
          "internalType": "string",
          "name": "_url",
          "type": "string"
        }
      ],
      "name": "getAccesList",
      "outputs": [
        {
          "components": [
            {
              "internalType": "address",
              "name": "sharedPerson",
              "type": "address"
            },
            {
              "internalType": "bool",
              "name": "access",
              "type": "bool"
            }
          ],
          "internalType": "struct Upload2.sharedAccess[]",
          "name": "",
          "type": "tuple[]"
        }
      ],
      "stateMutability": "view",
      "type": "function"
    },
    {
      "inputs": [],
      "name": "getMyFiles",
      "outputs": [
        {
          "components": [
            {
              "internalType": "string",
              "name": "url",
              "type": "string"
            },
            {
              "internalType": "string",
              "name": "name",
              "type": "string"
            },
            {
              "internalType": "string",
              "name": "timeStamp",
              "type": "string"
            },
            {
              "internalType": "string",
              "name": "size",
              "type": "string"
            },
            {
              "internalType": "bool",
              "name": "access",
              "type": "bool"
            }
          ],
          "internalType": "struct Upload2.FileAccess[]",
          "name": "",
          "type": "tuple[]"
        }
      ],
      "stateMutability": "view",
      "type": "function"
    },
    {
      "inputs": [],
      "name": "getTransactions",
      "outputs": [
        {
          "components": [
            {
              "internalType": "string",
              "name": "desc",
              "type": "string"
            },
            {
              "internalType": "string",
              "name": "timeStamp",
              "type": "string"
            }
          ],
          "internalType": "struct Upload2.TransactionBlock[]",
          "name": "",
          "type": "tuple[]"
        }
      ],
      "stateMutability": "view",
      "type": "function"
    },
    {
      "inputs": [
        {
          "internalType": "string",
          "name": "_url",
          "type": "string"
        },
        {
          "internalType": "string",
          "name": "_name",
          "type": "string"
        },
        {
          "internalType": "string",
          "name": "_timeStamp",
          "type": "string"
        },
        {
          "internalType": "string",
          "name": "_size",
          "type": "string"
        },
        {
          "internalType": "address",
          "name": "_sharedPerson",
          "type": "address"
        },
        {
          "internalType": "string",
          "name": "TransactionString",
          "type": "string"
        }
      ],
      "name": "giveAccess",
      "outputs": [],
      "stateMutability": "nonpayable",
      "type": "function"
    },
    {
      "inputs": [],
      "name": "helloWorld",
      "outputs": [
        {
          "internalType": "string",
          "name": "",
          "type": "string"
        }
      ],
      "stateMutability": "nonpayable",
      "type": "function"
    },
    {
      "inputs": [
        {
          "internalType": "string",
          "name": "_url",
          "type": "string"
        },
        {
          "internalType": "address",
          "name": "_sharedPerson",
          "type": "address"
        },
        {
          "internalType": "string",
          "name": "TransactionString",
          "type": "string"
        },
        {
          "internalType": "string",
          "name": "_timeStamp",
          "type": "string"
        }
      ],
      "name": "removeAccess",
      "outputs": [],
      "stateMutability": "nonpayable",
      "type": "function"
    },
    {
      "inputs": [
        {
          "internalType": "address",
          "name": "_owner",
          "type": "address"
        }
      ],
      "name": "sharedFiles",
      "outputs": [
        {
          "components": [
            {
              "internalType": "string",
              "name": "url",
              "type": "string"
            },
            {
              "internalType": "string",
              "name": "name",
              "type": "string"
            },
            {
              "internalType": "string",
              "name": "timeStamp",
              "type": "string"
            },
            {
              "internalType": "string",
              "name": "size",
              "type": "string"
            },
            {
              "internalType": "bool",
              "name": "access",
              "type": "bool"
            }
          ],
          "internalType": "struct Upload2.FileAccess[]",
          "name": "",
          "type": "tuple[]"
        }
      ],
      "stateMutability": "view",
      "type": "function"
    }
  ],
  "bytecode": "0x608060405234801561001057600080fd5b50612224806100206000396000f3fe608060405234801561001057600080fd5b50600436106100885760003560e01c806390a4b0df1161005b57806390a4b0df146100ff578063a8a43e381461011d578063c605f76c1461014d578063d72c15221461016b57610088565b806359392ccc1461008d578063650cfcd3146100a95780638247b345146100c557806383920e90146100e1575b600080fd5b6100a760048036038101906100a291906117cd565b61019b565b005b6100c360048036038101906100be9190611888565b61065d565b005b6100df60048036038101906100da919061198f565b61088d565b005b6100e9610bd5565b6040516100f69190611c36565b60405180910390f35b610107610d94565b6040516101149190611dc0565b60405180910390f35b61013760048036038101906101329190611de2565b6110d0565b6040516101449190611f18565b60405180910390f35b6101556111f7565b6040516101629190611f84565b60405180910390f35b61018560048036038101906101809190611fa6565b611234565b6040516101929190611dc0565b60405180910390f35b6000600160003373ffffffffffffffffffffffffffffffffffffffff1673ffffffffffffffffffffffffffffffffffffffff16815260200190815260200160002060008573ffffffffffffffffffffffffffffffffffffffff1673ffffffffffffffffffffffffffffffffffffffff16815260200190815260200160002080549050905060005b818110156103b8578580519060200120600160003373ffffffffffffffffffffffffffffffffffffffff1673ffffffffffffffffffffffffffffffffffffffff16815260200190815260200160002060008773ffffffffffffffffffffffffffffffffffffffff1673ffffffffffffffffffffffffffffffffffffffff16815260200190815260200160002082815481106102c0576102bf611fd3565b5b90600052602060002090600502016000016040516102de9190612102565b604051809103902014156103a5576000600160003373ffffffffffffffffffffffffffffffffffffffff1673ffffffffffffffffffffffffffffffffffffffff16815260200190815260200160002060008773ffffffffffffffffffffffffffffffffffffffff1673ffffffffffffffffffffffffffffffffffffffff168152602001908152602001600020828154811061037c5761037b611fd3565b5b906000526020600020906005020160040160006101000a81548160ff0219169083151502179055505b80806103b090612152565b915050610222565b506000600260003373ffffffffffffffffffffffffffffffffffffffff1673ffffffffffffffffffffffffffffffffffffffff1681526020019081526020016000208660405161040891906121d7565b908152602001604051809103902080549050905060005b8181101561059c578573ffffffffffffffffffffffffffffffffffffffff16600260003373ffffffffffffffffffffffffffffffffffffffff1673ffffffffffffffffffffffffffffffffffffffff1681526020019081526020016000208860405161048b91906121d7565b908152602001604051809103902082815481106104ab576104aa611fd3565b5b9060005260206000200160000160009054906101000a900473ffffffffffffffffffffffffffffffffffffffff1673ffffffffffffffffffffffffffffffffffffffff161415610589576000600260003373ffffffffffffffffffffffffffffffffffffffff1673ffffffffffffffffffffffffffffffffffffffff1681526020019081526020016000208860405161054491906121d7565b9081526020016040518091039020828154811061056457610563611fd3565b5b9060005260206000200160000160146101000a81548160ff0219169083151502179055505b808061059490612152565b91505061041f565b506000803373ffffffffffffffffffffffffffffffffffffffff1673ffffffffffffffffffffffffffffffffffffffff16815260200190815260200160002060405180604001604052808681526020018581525090806001815401808255809150506001900390600052602060002090600202016000909190919091506000820151816000019080519060200190610635929190611572565b506020820151816001019080519060200190610652929190611572565b505050505050505050565b60006040518060a001604052808781526020018681526020018581526020018481526020016001151581525090506000600160003373ffffffffffffffffffffffffffffffffffffffff1673ffffffffffffffffffffffffffffffffffffffff16815260200190815260200160002060003373ffffffffffffffffffffffffffffffffffffffff1673ffffffffffffffffffffffffffffffffffffffff1681526020019081526020016000209050808290806001815401808255809150506001900390600052602060002090600502016000909190919091506000820151816000019080519060200190610752929190611572565b50602082015181600101908051906020019061076f929190611572565b50604082015181600201908051906020019061078c929190611572565b5060608201518160030190805190602001906107a9929190611572565b5060808201518160040160006101000a81548160ff02191690831515021790555050506000803373ffffffffffffffffffffffffffffffffffffffff1673ffffffffffffffffffffffffffffffffffffffff16815260200190815260200160002060405180604001604052808581526020018781525090806001815401808255809150506001900390600052602060002090600202016000909190919091506000820151816000019080519060200190610864929190611572565b506020820151816001019080519060200190610881929190611572565b50505050505050505050565b60006040518060a001604052808881526020018781526020018681526020018581526020016001151581525090506000600160008573ffffffffffffffffffffffffffffffffffffffff1673ffffffffffffffffffffffffffffffffffffffff16815260200190815260200160002060003373ffffffffffffffffffffffffffffffffffffffff1673ffffffffffffffffffffffffffffffffffffffff1681526020019081526020016000209050808290806001815401808255809150506001900390600052602060002090600502016000909190919091506000820151816000019080519060200190610982929190611572565b50602082015181600101908051906020019061099f929190611572565b5060408201518160020190805190602001906109bc929190611572565b5060608201518160030190805190602001906109d9929190611572565b5060808201518160040160006101000a81548160ff0219169083151502179055505050600260003373ffffffffffffffffffffffffffffffffffffffff1673ffffffffffffffffffffffffffffffffffffffff16815260200190815260200160002088604051610a4991906121d7565b908152602001604051809103902060405180604001604052808673ffffffffffffffffffffffffffffffffffffffff168152602001600115158152509080600181540180825580915050600190039060005260206000200160009091909190915060008201518160000160006101000a81548173ffffffffffffffffffffffffffffffffffffffff021916908373ffffffffffffffffffffffffffffffffffffffff16021790555060208201518160000160146101000a81548160ff02191690831515021790555050506000803373ffffffffffffffffffffffffffffffffffffffff1673ffffffffffffffffffffffffffffffffffffffff16815260200190815260200160002060405180604001604052808581526020018881525090806001815401808255809150506001900390600052602060002090600202016000909190919091506000820151816000019080519060200190610bab929190611572565b506020820151816001019080519060200190610bc8929190611572565b5050505050505050505050565b60606000803373ffffffffffffffffffffffffffffffffffffffff1673ffffffffffffffffffffffffffffffffffffffff168152602001908152602001600020805480602002602001604051908101604052809291908181526020016000905b82821015610d8b5783829060005260206000209060020201604051806040016040529081600082018054610c6890612031565b80601f0160208091040260200160405190810160405280929190818152602001828054610c9490612031565b8015610ce15780601f10610cb657610100808354040283529160200191610ce1565b820191906000526020600020905b815481529060010190602001808311610cc457829003601f168201915b50505050508152602001600182018054610cfa90612031565b80601f0160208091040260200160405190810160405280929190818152602001828054610d2690612031565b8015610d735780601f10610d4857610100808354040283529160200191610d73565b820191906000526020600020905b815481529060010190602001808311610d5657829003601f168201915b50505050508152505081526020019060010190610c35565b50505050905090565b6060600160003373ffffffffffffffffffffffffffffffffffffffff1673ffffffffffffffffffffffffffffffffffffffff16815260200190815260200160002060003373ffffffffffffffffffffffffffffffffffffffff1673ffffffffffffffffffffffffffffffffffffffff168152602001908152602001600020805480602002602001604051908101604052809291908181526020016000905b828210156110c757838290600052602060002090600502016040518060a0016040529081600082018054610e6590612031565b80601f0160208091040260200160405190810160405280929190818152602001828054610e9190612031565b8015610ede5780601f10610eb357610100808354040283529160200191610ede565b820191906000526020600020905b815481529060010190602001808311610ec157829003601f168201915b50505050508152602001600182018054610ef790612031565b80601f0160208091040260200160405190810160405280929190818152602001828054610f2390612031565b8015610f705780601f10610f4557610100808354040283529160200191610f70565b820191906000526020600020905b815481529060010190602001808311610f5357829003601f168201915b50505050508152602001600282018054610f8990612031565b80601f0160208091040260200160405190810160405280929190818152602001828054610fb590612031565b80156110025780601f10610fd757610100808354040283529160200191611002565b820191906000526020600020905b815481529060010190602001808311610fe557829003601f168201915b5050505050815260200160038201805461101b90612031565b80601f016020809104026020016040519081016040528092919081815260200182805461104790612031565b80156110945780601f1061106957610100808354040283529160200191611094565b820191906000526020600020905b81548152906001019060200180831161107757829003601f168201915b505050505081526020016004820160009054906101000a900460ff16151515158152505081526020019060010190610e32565b50505050905090565b6060600260003373ffffffffffffffffffffffffffffffffffffffff1673ffffffffffffffffffffffffffffffffffffffff1681526020019081526020016000208260405161111f91906121d7565b9081526020016040518091039020805480602002602001604051908101604052809291908181526020016000905b828210156111ec578382906000526020600020016040518060400160405290816000820160009054906101000a900473ffffffffffffffffffffffffffffffffffffffff1673ffffffffffffffffffffffffffffffffffffffff1673ffffffffffffffffffffffffffffffffffffffff1681526020016000820160149054906101000a900460ff1615151515815250508152602001906001019061114d565b505050509050919050565b60606040518060400160405280600b81526020017f48656c6c6f20576f726c64000000000000000000000000000000000000000000815250905090565b6060600160003373ffffffffffffffffffffffffffffffffffffffff1673ffffffffffffffffffffffffffffffffffffffff16815260200190815260200160002060008373ffffffffffffffffffffffffffffffffffffffff1673ffffffffffffffffffffffffffffffffffffffff168152602001908152602001600020805480602002602001604051908101604052809291908181526020016000905b8282101561156757838290600052602060002090600502016040518060a001604052908160008201805461130590612031565b80601f016020809104026020016040519081016040528092919081815260200182805461133190612031565b801561137e5780601f106113535761010080835404028352916020019161137e565b820191906000526020600020905b81548152906001019060200180831161136157829003601f168201915b5050505050815260200160018201805461139790612031565b80601f01602080910402602001604051908101604052809291908181526020018280546113c390612031565b80156114105780601f106113e557610100808354040283529160200191611410565b820191906000526020600020905b8154815290600101906020018083116113f357829003601f168201915b5050505050815260200160028201805461142990612031565b80601f016020809104026020016040519081016040528092919081815260200182805461145590612031565b80156114a25780601f10611477576101008083540402835291602001916114a2565b820191906000526020600020905b81548152906001019060200180831161148557829003601f168201915b505050505081526020016003820180546114bb90612031565b80601f01602080910402602001604051908101604052809291908181526020018280546114e790612031565b80156115345780601f1061150957610100808354040283529160200191611534565b820191906000526020600020905b81548152906001019060200180831161151757829003601f168201915b505050505081526020016004820160009054906101000a900460ff161515151581525050815260200190600101906112d2565b505050509050919050565b82805461157e90612031565b90600052602060002090601f0160209004810192826115a057600085556115e7565b82601f106115b957805160ff19168380011785556115e7565b828001600101855582156115e7579182015b828111156115e65782518255916020019190600101906115cb565b5b5090506115f491906115f8565b5090565b5b808211156116115760008160009055506001016115f9565b5090565b6000604051905090565b600080fd5b600080fd5b600080fd5b600080fd5b6000601f19601f8301169050919050565b7f4e487b7100000000000000000000000000000000000000000000000000000000600052604160045260246000fd5b61167c82611633565b810181811067ffffffffffffffff8211171561169b5761169a611644565b5b80604052505050565b60006116ae611615565b90506116ba8282611673565b919050565b600067ffffffffffffffff8211156116da576116d9611644565b5b6116e382611633565b9050602081019050919050565b82818337600083830152505050565b600061171261170d846116bf565b6116a4565b90508281526020810184848401111561172e5761172d61162e565b5b6117398482856116f0565b509392505050565b600082601f83011261175657611755611629565b5b81356117668482602086016116ff565b91505092915050565b600073ffffffffffffffffffffffffffffffffffffffff82169050919050565b600061179a8261176f565b9050919050565b6117aa8161178f565b81146117b557600080fd5b50565b6000813590506117c7816117a1565b92915050565b600080600080608085870312156117e7576117e661161f565b5b600085013567ffffffffffffffff81111561180557611804611624565b5b61181187828801611741565b9450506020611822878288016117b8565b935050604085013567ffffffffffffffff81111561184357611842611624565b5b61184f87828801611741565b925050606085013567ffffffffffffffff8111156118705761186f611624565b5b61187c87828801611741565b91505092959194509250565b600080600080600060a086880312156118a4576118a361161f565b5b600086013567ffffffffffffffff8111156118c2576118c1611624565b5b6118ce88828901611741565b955050602086013567ffffffffffffffff8111156118ef576118ee611624565b5b6118fb88828901611741565b945050604086013567ffffffffffffffff81111561191c5761191b611624565b5b61192888828901611741565b935050606086013567ffffffffffffffff81111561194957611948611624565b5b61195588828901611741565b925050608086013567ffffffffffffffff81111561197657611975611624565b5b61198288828901611741565b9150509295509295909350565b60008060008060008060c087890312156119ac576119ab61161f565b5b600087013567ffffffffffffffff8111156119ca576119c9611624565b5b6119d689828a01611741565b965050602087013567ffffffffffffffff8111156119f7576119f6611624565b5b611a0389828a01611741565b955050604087013567ffffffffffffffff811115611a2457611a23611624565b5b611a3089828a01611741565b945050606087013567ffffffffffffffff811115611a5157611a50611624565b5b611a5d89828a01611741565b9350506080611a6e89828a016117b8565b92505060a087013567ffffffffffffffff811115611a8f57611a8e611624565b5b611a9b89828a01611741565b9150509295509295509295565b600081519050919050565b600082825260208201905092915050565b6000819050602082019050919050565b600081519050919050565b600082825260208201905092915050565b60005b83811015611b0e578082015181840152602081019050611af3565b83811115611b1d576000848401525b50505050565b6000611b2e82611ad4565b611b388185611adf565b9350611b48818560208601611af0565b611b5181611633565b840191505092915050565b60006040830160008301518482036000860152611b798282611b23565b91505060208301518482036020860152611b938282611b23565b9150508091505092915050565b6000611bac8383611b5c565b905092915050565b6000602082019050919050565b6000611bcc82611aa8565b611bd68185611ab3565b935083602082028501611be885611ac4565b8060005b85811015611c245784840389528151611c058582611ba0565b9450611c1083611bb4565b925060208a01995050600181019050611bec565b50829750879550505050505092915050565b60006020820190508181036000830152611c508184611bc1565b905092915050565b600081519050919050565b600082825260208201905092915050565b6000819050602082019050919050565b60008115159050919050565b611c9981611c84565b82525050565b600060a0830160008301518482036000860152611cbc8282611b23565b91505060208301518482036020860152611cd68282611b23565b91505060408301518482036040860152611cf08282611b23565b91505060608301518482036060860152611d0a8282611b23565b9150506080830151611d1f6080860182611c90565b508091505092915050565b6000611d368383611c9f565b905092915050565b6000602082019050919050565b6000611d5682611c58565b611d608185611c63565b935083602082028501611d7285611c74565b8060005b85811015611dae5784840389528151611d8f8582611d2a565b9450611d9a83611d3e565b925060208a01995050600181019050611d76565b50829750879550505050505092915050565b60006020820190508181036000830152611dda8184611d4b565b905092915050565b600060208284031215611df857611df761161f565b5b600082013567ffffffffffffffff811115611e1657611e15611624565b5b611e2284828501611741565b91505092915050565b600081519050919050565b600082825260208201905092915050565b6000819050602082019050919050565b611e608161178f565b82525050565b604082016000820151611e7c6000850182611e57565b506020820151611e8f6020850182611c90565b50505050565b6000611ea18383611e66565b60408301905092915050565b6000602082019050919050565b6000611ec582611e2b565b611ecf8185611e36565b9350611eda83611e47565b8060005b83811015611f0b578151611ef28882611e95565b9750611efd83611ead565b925050600181019050611ede565b5085935050505092915050565b60006020820190508181036000830152611f328184611eba565b905092915050565b600082825260208201905092915050565b6000611f5682611ad4565b611f608185611f3a565b9350611f70818560208601611af0565b611f7981611633565b840191505092915050565b60006020820190508181036000830152611f9e8184611f4b565b905092915050565b600060208284031215611fbc57611fbb61161f565b5b6000611fca848285016117b8565b91505092915050565b7f4e487b7100000000000000000000000000000000000000000000000000000000600052603260045260246000fd5b7f4e487b7100000000000000000000000000000000000000000000000000000000600052602260045260246000fd5b6000600282049050600182168061204957607f821691505b6020821081141561205d5761205c612002565b5b50919050565b600081905092915050565b60008190508160005260206000209050919050565b6000815461209081612031565b61209a8186612063565b945060018216600081146120b557600181146120c6576120f9565b60ff198316865281860193506120f9565b6120cf8561206e565b60005b838110156120f1578154818901526001820191506020810190506120d2565b838801955050505b50505092915050565b600061210e8284612083565b915081905092915050565b7f4e487b7100000000000000000000000000000000000000000000000000000000600052601160045260246000fd5b6000819050919050565b600061215d82612148565b91507fffffffffffffffffffffffffffffffffffffffffffffffffffffffffffffffff8214156121905761218f612119565b5b600182019050919050565b600081905092915050565b60006121b182611ad4565b6121bb818561219b565b93506121cb818560208601611af0565b80840191505092915050565b60006121e382846121a6565b91508190509291505056fea26469706673582212205b8292abf2d3221bbec3de136abad8ae42727e9617371352e6a4d8ae69e1c63764736f6c63430008090033",
  "linkReferences": {},
  "deployedLinkReferences": {}
}