{
  "_format": "hh-sol-artifact-1",
  "contractName": "Upload2",
  "sourceName": "contracts/Upload2.sol",
  "abi": [
    {
      "inputs": [
        {
          "internalType": "string",
          "name": "_url",
          "type": "string"
        },
        {
          "internalType": "string",
          "name": "_name",
          "type": "string"
        },
        {
          "internalType": "string",
          "name": "_timeStamp",
          "type": "string"
        },
        {
          "internalType": "string",
          "name": "_size",
          "type": "string"
        },
        {
          "internalType": "string",
          "name": "TransactionString",
          "type": "string"
        }
      ],
      "name": "AddFile",
      "outputs": [],
      "stateMutability": "nonpayable",
      "type": "function"
    },
    {
      "inputs": [
        {
          "internalType": "string",
          "name": "_url",
          "type": "string"
        }
      ],
      "name": "getAccesList",
      "outputs": [
        {
          "components": [
            {
              "internalType": "address",
              "name": "sharedPerson",
              "type": "address"
            },
            {
              "internalType": "bool",
              "name": "access",
              "type": "bool"
            }
          ],
          "internalType": "struct Upload2.sharedAccess[]",
          "name": "",
          "type": "tuple[]"
        }
      ],
      "stateMutability": "view",
      "type": "function"
    },
    {
      "inputs": [],
      "name": "getMyFiles",
      "outputs": [
        {
          "components": [
            {
              "internalType": "string",
              "name": "url",
              "type": "string"
            },
            {
              "internalType": "string",
              "name": "name",
              "type": "string"
            },
            {
              "internalType": "string",
              "name": "timeStamp",
              "type": "string"
            },
            {
              "internalType": "string",
              "name": "size",
              "type": "string"
            },
            {
              "internalType": "bool",
              "name": "access",
              "type": "bool"
            }
          ],
          "internalType": "struct Upload2.FileAccess[]",
          "name": "",
          "type": "tuple[]"
        }
      ],
      "stateMutability": "view",
      "type": "function"
    },
    {
      "inputs": [],
      "name": "getTransactions",
      "outputs": [
        {
          "components": [
            {
              "internalType": "string",
              "name": "desc",
              "type": "string"
            },
            {
              "internalType": "string",
              "name": "timeStamp",
              "type": "string"
            }
          ],
          "internalType": "struct Upload2.TransactionBlock[]",
          "name": "",
          "type": "tuple[]"
        }
      ],
      "stateMutability": "view",
      "type": "function"
    },
    {
      "inputs": [
        {
          "internalType": "string",
          "name": "_url",
          "type": "string"
        },
        {
          "internalType": "string",
          "name": "_name",
          "type": "string"
        },
        {
          "internalType": "string",
          "name": "_timeStamp",
          "type": "string"
        },
        {
          "internalType": "string",
          "name": "_size",
          "type": "string"
        },
        {
          "internalType": "address",
          "name": "_sharedPerson",
          "type": "address"
        },
        {
          "internalType": "string",
          "name": "TransactionString",
          "type": "string"
        }
      ],
      "name": "giveAccess",
      "outputs": [],
      "stateMutability": "nonpayable",
      "type": "function"
    },
    {
      "inputs": [
        {
          "internalType": "string",
          "name": "_url",
          "type": "string"
        },
        {
          "internalType": "address",
          "name": "_sharedPerson",
          "type": "address"
        },
        {
          "internalType": "string",
          "name": "TransactionString",
          "type": "string"
        },
        {
          "internalType": "string",
          "name": "_timeStamp",
          "type": "string"
        }
      ],
      "name": "removeAccess",
      "outputs": [],
      "stateMutability": "nonpayable",
      "type": "function"
    },
    {
      "inputs": [
        {
          "internalType": "address",
          "name": "_owner",
          "type": "address"
        }
      ],
      "name": "sharedFiles",
      "outputs": [
        {
          "components": [
            {
              "internalType": "string",
              "name": "url",
              "type": "string"
            },
            {
              "internalType": "string",
              "name": "name",
              "type": "string"
            },
            {
              "internalType": "string",
              "name": "timeStamp",
              "type": "string"
            },
            {
              "internalType": "string",
              "name": "size",
              "type": "string"
            },
            {
              "internalType": "bool",
              "name": "access",
              "type": "bool"
            }
          ],
          "internalType": "struct Upload2.FileAccess[]",
          "name": "",
          "type": "tuple[]"
        }
      ],
      "stateMutability": "view",
      "type": "function"
    }
  ],
  "bytecode": "0x608060405234801561001057600080fd5b50612152806100206000396000f3fe608060405234801561001057600080fd5b506004361061007d5760003560e01c806383920e901161005b57806383920e90146100d657806390a4b0df146100f4578063a8a43e3814610112578063d72c1522146101425761007d565b806359392ccc14610082578063650cfcd31461009e5780638247b345146100ba575b600080fd5b61009c60048036038101906100979190611767565b610172565b005b6100b860048036038101906100b39190611822565b610634565b005b6100d460048036038101906100cf9190611929565b610864565b005b6100de610bac565b6040516100eb9190611bd0565b60405180910390f35b6100fc610d6b565b6040516101099190611d5a565b60405180910390f35b61012c60048036038101906101279190611d7c565b6110a7565b6040516101399190611eb2565b60405180910390f35b61015c60048036038101906101579190611ed4565b6111ce565b6040516101699190611d5a565b60405180910390f35b6000600160003373ffffffffffffffffffffffffffffffffffffffff1673ffffffffffffffffffffffffffffffffffffffff16815260200190815260200160002060008573ffffffffffffffffffffffffffffffffffffffff1673ffffffffffffffffffffffffffffffffffffffff16815260200190815260200160002080549050905060005b8181101561038f578580519060200120600160003373ffffffffffffffffffffffffffffffffffffffff1673ffffffffffffffffffffffffffffffffffffffff16815260200190815260200160002060008773ffffffffffffffffffffffffffffffffffffffff1673ffffffffffffffffffffffffffffffffffffffff168152602001908152602001600020828154811061029757610296611f01565b5b90600052602060002090600502016000016040516102b59190612030565b6040518091039020141561037c576000600160003373ffffffffffffffffffffffffffffffffffffffff1673ffffffffffffffffffffffffffffffffffffffff16815260200190815260200160002060008773ffffffffffffffffffffffffffffffffffffffff1673ffffffffffffffffffffffffffffffffffffffff168152602001908152602001600020828154811061035357610352611f01565b5b906000526020600020906005020160040160006101000a81548160ff0219169083151502179055505b808061038790612080565b9150506101f9565b506000600260003373ffffffffffffffffffffffffffffffffffffffff1673ffffffffffffffffffffffffffffffffffffffff168152602001908152602001600020866040516103df9190612105565b908152602001604051809103902080549050905060005b81811015610573578573ffffffffffffffffffffffffffffffffffffffff16600260003373ffffffffffffffffffffffffffffffffffffffff1673ffffffffffffffffffffffffffffffffffffffff168152602001908152602001600020886040516104629190612105565b9081526020016040518091039020828154811061048257610481611f01565b5b9060005260206000200160000160009054906101000a900473ffffffffffffffffffffffffffffffffffffffff1673ffffffffffffffffffffffffffffffffffffffff161415610560576000600260003373ffffffffffffffffffffffffffffffffffffffff1673ffffffffffffffffffffffffffffffffffffffff1681526020019081526020016000208860405161051b9190612105565b9081526020016040518091039020828154811061053b5761053a611f01565b5b9060005260206000200160000160146101000a81548160ff0219169083151502179055505b808061056b90612080565b9150506103f6565b506000803373ffffffffffffffffffffffffffffffffffffffff1673ffffffffffffffffffffffffffffffffffffffff1681526020019081526020016000206040518060400160405280868152602001858152509080600181540180825580915050600190039060005260206000209060020201600090919091909150600082015181600001908051906020019061060c92919061150c565b50602082015181600101908051906020019061062992919061150c565b505050505050505050565b60006040518060a001604052808781526020018681526020018581526020018481526020016001151581525090506000600160003373ffffffffffffffffffffffffffffffffffffffff1673ffffffffffffffffffffffffffffffffffffffff16815260200190815260200160002060003373ffffffffffffffffffffffffffffffffffffffff1673ffffffffffffffffffffffffffffffffffffffff168152602001908152602001600020905080829080600181540180825580915050600190039060005260206000209060050201600090919091909150600082015181600001908051906020019061072992919061150c565b50602082015181600101908051906020019061074692919061150c565b50604082015181600201908051906020019061076392919061150c565b50606082015181600301908051906020019061078092919061150c565b5060808201518160040160006101000a81548160ff02191690831515021790555050506000803373ffffffffffffffffffffffffffffffffffffffff1673ffffffffffffffffffffffffffffffffffffffff1681526020019081526020016000206040518060400160405280858152602001878152509080600181540180825580915050600190039060005260206000209060020201600090919091909150600082015181600001908051906020019061083b92919061150c565b50602082015181600101908051906020019061085892919061150c565b50505050505050505050565b60006040518060a001604052808881526020018781526020018681526020018581526020016001151581525090506000600160008573ffffffffffffffffffffffffffffffffffffffff1673ffffffffffffffffffffffffffffffffffffffff16815260200190815260200160002060003373ffffffffffffffffffffffffffffffffffffffff1673ffffffffffffffffffffffffffffffffffffffff168152602001908152602001600020905080829080600181540180825580915050600190039060005260206000209060050201600090919091909150600082015181600001908051906020019061095992919061150c565b50602082015181600101908051906020019061097692919061150c565b50604082015181600201908051906020019061099392919061150c565b5060608201518160030190805190602001906109b092919061150c565b5060808201518160040160006101000a81548160ff0219169083151502179055505050600260003373ffffffffffffffffffffffffffffffffffffffff1673ffffffffffffffffffffffffffffffffffffffff16815260200190815260200160002088604051610a209190612105565b908152602001604051809103902060405180604001604052808673ffffffffffffffffffffffffffffffffffffffff168152602001600115158152509080600181540180825580915050600190039060005260206000200160009091909190915060008201518160000160006101000a81548173ffffffffffffffffffffffffffffffffffffffff021916908373ffffffffffffffffffffffffffffffffffffffff16021790555060208201518160000160146101000a81548160ff02191690831515021790555050506000803373ffffffffffffffffffffffffffffffffffffffff1673ffffffffffffffffffffffffffffffffffffffff16815260200190815260200160002060405180604001604052808581526020018881525090806001815401808255809150506001900390600052602060002090600202016000909190919091506000820151816000019080519060200190610b8292919061150c565b506020820151816001019080519060200190610b9f92919061150c565b5050505050505050505050565b60606000803373ffffffffffffffffffffffffffffffffffffffff1673ffffffffffffffffffffffffffffffffffffffff168152602001908152602001600020805480602002602001604051908101604052809291908181526020016000905b82821015610d625783829060005260206000209060020201604051806040016040529081600082018054610c3f90611f5f565b80601f0160208091040260200160405190810160405280929190818152602001828054610c6b90611f5f565b8015610cb85780601f10610c8d57610100808354040283529160200191610cb8565b820191906000526020600020905b815481529060010190602001808311610c9b57829003601f168201915b50505050508152602001600182018054610cd190611f5f565b80601f0160208091040260200160405190810160405280929190818152602001828054610cfd90611f5f565b8015610d4a5780601f10610d1f57610100808354040283529160200191610d4a565b820191906000526020600020905b815481529060010190602001808311610d2d57829003601f168201915b50505050508152505081526020019060010190610c0c565b50505050905090565b6060600160003373ffffffffffffffffffffffffffffffffffffffff1673ffffffffffffffffffffffffffffffffffffffff16815260200190815260200160002060003373ffffffffffffffffffffffffffffffffffffffff1673ffffffffffffffffffffffffffffffffffffffff168152602001908152602001600020805480602002602001604051908101604052809291908181526020016000905b8282101561109e57838290600052602060002090600502016040518060a0016040529081600082018054610e3c90611f5f565b80601f0160208091040260200160405190810160405280929190818152602001828054610e6890611f5f565b8015610eb55780601f10610e8a57610100808354040283529160200191610eb5565b820191906000526020600020905b815481529060010190602001808311610e9857829003601f168201915b50505050508152602001600182018054610ece90611f5f565b80601f0160208091040260200160405190810160405280929190818152602001828054610efa90611f5f565b8015610f475780601f10610f1c57610100808354040283529160200191610f47565b820191906000526020600020905b815481529060010190602001808311610f2a57829003601f168201915b50505050508152602001600282018054610f6090611f5f565b80601f0160208091040260200160405190810160405280929190818152602001828054610f8c90611f5f565b8015610fd95780601f10610fae57610100808354040283529160200191610fd9565b820191906000526020600020905b815481529060010190602001808311610fbc57829003601f168201915b50505050508152602001600382018054610ff290611f5f565b80601f016020809104026020016040519081016040528092919081815260200182805461101e90611f5f565b801561106b5780601f106110405761010080835404028352916020019161106b565b820191906000526020600020905b81548152906001019060200180831161104e57829003601f168201915b505050505081526020016004820160009054906101000a900460ff16151515158152505081526020019060010190610e09565b50505050905090565b6060600260003373ffffffffffffffffffffffffffffffffffffffff1673ffffffffffffffffffffffffffffffffffffffff168152602001908152602001600020826040516110f69190612105565b9081526020016040518091039020805480602002602001604051908101604052809291908181526020016000905b828210156111c3578382906000526020600020016040518060400160405290816000820160009054906101000a900473ffffffffffffffffffffffffffffffffffffffff1673ffffffffffffffffffffffffffffffffffffffff1673ffffffffffffffffffffffffffffffffffffffff1681526020016000820160149054906101000a900460ff16151515158152505081526020019060010190611124565b505050509050919050565b6060600160003373ffffffffffffffffffffffffffffffffffffffff1673ffffffffffffffffffffffffffffffffffffffff16815260200190815260200160002060008373ffffffffffffffffffffffffffffffffffffffff1673ffffffffffffffffffffffffffffffffffffffff168152602001908152602001600020805480602002602001604051908101604052809291908181526020016000905b8282101561150157838290600052602060002090600502016040518060a001604052908160008201805461129f90611f5f565b80601f01602080910402602001604051908101604052809291908181526020018280546112cb90611f5f565b80156113185780601f106112ed57610100808354040283529160200191611318565b820191906000526020600020905b8154815290600101906020018083116112fb57829003601f168201915b5050505050815260200160018201805461133190611f5f565b80601f016020809104026020016040519081016040528092919081815260200182805461135d90611f5f565b80156113aa5780601f1061137f576101008083540402835291602001916113aa565b820191906000526020600020905b81548152906001019060200180831161138d57829003601f168201915b505050505081526020016002820180546113c390611f5f565b80601f01602080910402602001604051908101604052809291908181526020018280546113ef90611f5f565b801561143c5780601f106114115761010080835404028352916020019161143c565b820191906000526020600020905b81548152906001019060200180831161141f57829003601f168201915b5050505050815260200160038201805461145590611f5f565b80601f016020809104026020016040519081016040528092919081815260200182805461148190611f5f565b80156114ce5780601f106114a3576101008083540402835291602001916114ce565b820191906000526020600020905b8154815290600101906020018083116114b157829003601f168201915b505050505081526020016004820160009054906101000a900460ff1615151515815250508152602001906001019061126c565b505050509050919050565b82805461151890611f5f565b90600052602060002090601f01602090048101928261153a5760008555611581565b82601f1061155357805160ff1916838001178555611581565b82800160010185558215611581579182015b82811115611580578251825591602001919060010190611565565b5b50905061158e9190611592565b5090565b5b808211156115ab576000816000905550600101611593565b5090565b6000604051905090565b600080fd5b600080fd5b600080fd5b600080fd5b6000601f19601f8301169050919050565b7f4e487b7100000000000000000000000000000000000000000000000000000000600052604160045260246000fd5b611616826115cd565b810181811067ffffffffffffffff82111715611635576116346115de565b5b80604052505050565b60006116486115af565b9050611654828261160d565b919050565b600067ffffffffffffffff821115611674576116736115de565b5b61167d826115cd565b9050602081019050919050565b82818337600083830152505050565b60006116ac6116a784611659565b61163e565b9050828152602081018484840111156116c8576116c76115c8565b5b6116d384828561168a565b509392505050565b600082601f8301126116f0576116ef6115c3565b5b8135611700848260208601611699565b91505092915050565b600073ffffffffffffffffffffffffffffffffffffffff82169050919050565b600061173482611709565b9050919050565b61174481611729565b811461174f57600080fd5b50565b6000813590506117618161173b565b92915050565b60008060008060808587031215611781576117806115b9565b5b600085013567ffffffffffffffff81111561179f5761179e6115be565b5b6117ab878288016116db565b94505060206117bc87828801611752565b935050604085013567ffffffffffffffff8111156117dd576117dc6115be565b5b6117e9878288016116db565b925050606085013567ffffffffffffffff81111561180a576118096115be565b5b611816878288016116db565b91505092959194509250565b600080600080600060a0868803121561183e5761183d6115b9565b5b600086013567ffffffffffffffff81111561185c5761185b6115be565b5b611868888289016116db565b955050602086013567ffffffffffffffff811115611889576118886115be565b5b611895888289016116db565b945050604086013567ffffffffffffffff8111156118b6576118b56115be565b5b6118c2888289016116db565b935050606086013567ffffffffffffffff8111156118e3576118e26115be565b5b6118ef888289016116db565b925050608086013567ffffffffffffffff8111156119105761190f6115be565b5b61191c888289016116db565b9150509295509295909350565b60008060008060008060c08789031215611946576119456115b9565b5b600087013567ffffffffffffffff811115611964576119636115be565b5b61197089828a016116db565b965050602087013567ffffffffffffffff811115611991576119906115be565b5b61199d89828a016116db565b955050604087013567ffffffffffffffff8111156119be576119bd6115be565b5b6119ca89828a016116db565b945050606087013567ffffffffffffffff8111156119eb576119ea6115be565b5b6119f789828a016116db565b9350506080611a0889828a01611752565b92505060a087013567ffffffffffffffff811115611a2957611a286115be565b5b611a3589828a016116db565b9150509295509295509295565b600081519050919050565b600082825260208201905092915050565b6000819050602082019050919050565b600081519050919050565b600082825260208201905092915050565b60005b83811015611aa8578082015181840152602081019050611a8d565b83811115611ab7576000848401525b50505050565b6000611ac882611a6e565b611ad28185611a79565b9350611ae2818560208601611a8a565b611aeb816115cd565b840191505092915050565b60006040830160008301518482036000860152611b138282611abd565b91505060208301518482036020860152611b2d8282611abd565b9150508091505092915050565b6000611b468383611af6565b905092915050565b6000602082019050919050565b6000611b6682611a42565b611b708185611a4d565b935083602082028501611b8285611a5e565b8060005b85811015611bbe5784840389528151611b9f8582611b3a565b9450611baa83611b4e565b925060208a01995050600181019050611b86565b50829750879550505050505092915050565b60006020820190508181036000830152611bea8184611b5b565b905092915050565b600081519050919050565b600082825260208201905092915050565b6000819050602082019050919050565b60008115159050919050565b611c3381611c1e565b82525050565b600060a0830160008301518482036000860152611c568282611abd565b91505060208301518482036020860152611c708282611abd565b91505060408301518482036040860152611c8a8282611abd565b91505060608301518482036060860152611ca48282611abd565b9150506080830151611cb96080860182611c2a565b508091505092915050565b6000611cd08383611c39565b905092915050565b6000602082019050919050565b6000611cf082611bf2565b611cfa8185611bfd565b935083602082028501611d0c85611c0e565b8060005b85811015611d485784840389528151611d298582611cc4565b9450611d3483611cd8565b925060208a01995050600181019050611d10565b50829750879550505050505092915050565b60006020820190508181036000830152611d748184611ce5565b905092915050565b600060208284031215611d9257611d916115b9565b5b600082013567ffffffffffffffff811115611db057611daf6115be565b5b611dbc848285016116db565b91505092915050565b600081519050919050565b600082825260208201905092915050565b6000819050602082019050919050565b611dfa81611729565b82525050565b604082016000820151611e166000850182611df1565b506020820151611e296020850182611c2a565b50505050565b6000611e3b8383611e00565b60408301905092915050565b6000602082019050919050565b6000611e5f82611dc5565b611e698185611dd0565b9350611e7483611de1565b8060005b83811015611ea5578151611e8c8882611e2f565b9750611e9783611e47565b925050600181019050611e78565b5085935050505092915050565b60006020820190508181036000830152611ecc8184611e54565b905092915050565b600060208284031215611eea57611ee96115b9565b5b6000611ef884828501611752565b91505092915050565b7f4e487b7100000000000000000000000000000000000000000000000000000000600052603260045260246000fd5b7f4e487b7100000000000000000000000000000000000000000000000000000000600052602260045260246000fd5b60006002820490506001821680611f7757607f821691505b60208210811415611f8b57611f8a611f30565b5b50919050565b600081905092915050565b60008190508160005260206000209050919050565b60008154611fbe81611f5f565b611fc88186611f91565b94506001821660008114611fe35760018114611ff457612027565b60ff19831686528186019350612027565b611ffd85611f9c565b60005b8381101561201f57815481890152600182019150602081019050612000565b838801955050505b50505092915050565b600061203c8284611fb1565b915081905092915050565b7f4e487b7100000000000000000000000000000000000000000000000000000000600052601160045260246000fd5b6000819050919050565b600061208b82612076565b91507fffffffffffffffffffffffffffffffffffffffffffffffffffffffffffffffff8214156120be576120bd612047565b5b600182019050919050565b600081905092915050565b60006120df82611a6e565b6120e981856120c9565b93506120f9818560208601611a8a565b80840191505092915050565b600061211182846120d4565b91508190509291505056fea264697066735822122025d2b14c91a6ad9d0e58b598e0795b07d0bbd06cd75272d657ab1130f169d48964736f6c63430008090033",
  "linkReferences": {},
  "deployedLinkReferences": {}
}