{
  "_format": "hh-sol-artifact-1",
  "contractName": "Upload2",
  "sourceName": "contracts/Upload2.sol",
  "abi": [
    {
      "inputs": [
        {
          "internalType": "string",
          "name": "_url",
          "type": "string"
        },
        {
          "internalType": "string",
          "name": "_name",
          "type": "string"
        },
        {
          "internalType": "string",
          "name": "_timeStamp",
          "type": "string"
        },
        {
          "internalType": "string",
          "name": "_size",
          "type": "string"
        },
        {
          "internalType": "string",
          "name": "TransactionString",
          "type": "string"
        }
      ],
      "name": "AddFile",
      "outputs": [],
      "stateMutability": "nonpayable",
      "type": "function"
    },
    {
      "inputs": [
        {
          "internalType": "address",
          "name": "_owner",
          "type": "address"
        },
        {
          "internalType": "string",
          "name": "TransactionString",
          "type": "string"
        },
        {
          "internalType": "string",
          "name": "_timestamp",
          "type": "string"
        }
      ],
      "name": "SharedTransaction",
      "outputs": [],
      "stateMutability": "nonpayable",
      "type": "function"
    },
    {
      "inputs": [
        {
          "internalType": "string",
          "name": "_url",
          "type": "string"
        },
        {
          "internalType": "string",
          "name": "TrasactionStringowner",
          "type": "string"
        },
        {
          "internalType": "string",
          "name": "TransactionStringshared",
          "type": "string"
        },
        {
          "internalType": "string",
          "name": "_timestamp",
          "type": "string"
        }
      ],
      "name": "deleteFile",
      "outputs": [],
      "stateMutability": "nonpayable",
      "type": "function"
    },
    {
      "inputs": [
        {
          "internalType": "string",
          "name": "_url",
          "type": "string"
        }
      ],
      "name": "getAccesList",
      "outputs": [
        {
          "components": [
            {
              "internalType": "address",
              "name": "sharedPerson",
              "type": "address"
            },
            {
              "internalType": "bool",
              "name": "access",
              "type": "bool"
            }
          ],
          "internalType": "struct Upload2.sharedAccess[]",
          "name": "",
          "type": "tuple[]"
        }
      ],
      "stateMutability": "view",
      "type": "function"
    },
    {
      "inputs": [],
      "name": "getMyFiles",
      "outputs": [
        {
          "components": [
            {
              "internalType": "string",
              "name": "url",
              "type": "string"
            },
            {
              "internalType": "string",
              "name": "name",
              "type": "string"
            },
            {
              "internalType": "string",
              "name": "timeStamp",
              "type": "string"
            },
            {
              "internalType": "string",
              "name": "size",
              "type": "string"
            },
            {
              "internalType": "bool",
              "name": "access",
              "type": "bool"
            }
          ],
          "internalType": "struct Upload2.FileAccess[]",
          "name": "",
          "type": "tuple[]"
        }
      ],
      "stateMutability": "view",
      "type": "function"
    },
    {
      "inputs": [],
      "name": "getTransactions",
      "outputs": [
        {
          "components": [
            {
              "internalType": "string",
              "name": "desc",
              "type": "string"
            },
            {
              "internalType": "string",
              "name": "timeStamp",
              "type": "string"
            }
          ],
          "internalType": "struct Upload2.TransactionBlock[]",
          "name": "",
          "type": "tuple[]"
        }
      ],
      "stateMutability": "view",
      "type": "function"
    },
    {
      "inputs": [
        {
          "internalType": "string",
          "name": "_url",
          "type": "string"
        },
        {
          "internalType": "string",
          "name": "_name",
          "type": "string"
        },
        {
          "internalType": "string",
          "name": "_timeStamp",
          "type": "string"
        },
        {
          "internalType": "string",
          "name": "_size",
          "type": "string"
        },
        {
          "internalType": "address",
          "name": "_sharedPerson",
          "type": "address"
        },
        {
          "internalType": "string",
          "name": "TransactionStringowner",
          "type": "string"
        },
        {
          "internalType": "string",
          "name": "TransactionStringshared",
          "type": "string"
        }
      ],
      "name": "giveAccess",
      "outputs": [],
      "stateMutability": "nonpayable",
      "type": "function"
    },
    {
      "inputs": [
        {
          "internalType": "string",
          "name": "_url",
          "type": "string"
        },
        {
          "internalType": "address",
          "name": "_sharedPerson",
          "type": "address"
        },
        {
          "internalType": "string",
          "name": "TransactionStringowner",
          "type": "string"
        },
        {
          "internalType": "string",
          "name": "TransactionStringshared",
          "type": "string"
        },
        {
          "internalType": "string",
          "name": "_timeStamp",
          "type": "string"
        }
      ],
      "name": "removeAccess",
      "outputs": [],
      "stateMutability": "nonpayable",
      "type": "function"
    },
    {
      "inputs": [
        {
          "internalType": "address",
          "name": "_owner",
          "type": "address"
        }
      ],
      "name": "sharedFiles",
      "outputs": [
        {
          "components": [
            {
              "internalType": "string",
              "name": "url",
              "type": "string"
            },
            {
              "internalType": "string",
              "name": "name",
              "type": "string"
            },
            {
              "internalType": "string",
              "name": "timeStamp",
              "type": "string"
            },
            {
              "internalType": "string",
              "name": "size",
              "type": "string"
            },
            {
              "internalType": "bool",
              "name": "access",
              "type": "bool"
            }
          ],
          "internalType": "struct Upload2.FileAccess[]",
          "name": "",
          "type": "tuple[]"
        }
      ],
      "stateMutability": "view",
      "type": "function"
    }
  ],
  "bytecode": "0x608060405234801561001057600080fd5b5061320c806100206000396000f3fe608060405234801561001057600080fd5b50600436106100935760003560e01c806390a4b0df1161006657806390a4b0df1461010a578063a483d3e214610128578063a8a43e3814610144578063c43a8a8d14610174578063d72c15221461019057610093565b806332d6d29d14610098578063478fc28a146100b4578063650cfcd3146100d057806383920e90146100ec575b600080fd5b6100b260048036038101906100ad91906125c6565b6101c0565b005b6100ce60048036038101906100c99190612651565b61027d565b005b6100ea60048036038101906100e5919061279b565b61067e565b005b6100f46108ae565b6040516101019190612a30565b60405180910390f35b610112610a6d565b60405161011f9190612bba565b60405180910390f35b610142600480360381019061013d9190612bdc565b610eeb565b005b61015e60048036038101906101599190612cc7565b6115b0565b60405161016b9190612dfd565b60405180910390f35b61018e60048036038101906101899190612e1f565b611819565b005b6101aa60048036038101906101a59190612ef6565b611e88565b6040516101b79190612bba565b60405180910390f35b6000808473ffffffffffffffffffffffffffffffffffffffff1673ffffffffffffffffffffffffffffffffffffffff16815260200190815260200160002060405180604001604052808481526020018381525090806001815401808255809150506001900390600052602060002090600202016000909190919091506000820151816000019080519060200190610258929190612308565b506020820151816001019080519060200190610275929190612308565b505050505050565b60006040518060a001604052808981526020018881526020018781526020018681526020016001151581525090506000600160008673ffffffffffffffffffffffffffffffffffffffff1673ffffffffffffffffffffffffffffffffffffffff16815260200190815260200160002060003373ffffffffffffffffffffffffffffffffffffffff1673ffffffffffffffffffffffffffffffffffffffff1681526020019081526020016000209050808290806001815401808255809150506001900390600052602060002090600502016000909190919091506000820151816000019080519060200190610372929190612308565b50602082015181600101908051906020019061038f929190612308565b5060408201518160020190805190602001906103ac929190612308565b5060608201518160030190805190602001906103c9929190612308565b5060808201518160040160006101000a81548160ff0219169083151502179055505050600260003373ffffffffffffffffffffffffffffffffffffffff1673ffffffffffffffffffffffffffffffffffffffff168152602001908152602001600020896040516104399190612f5f565b908152602001604051809103902060405180604001604052808773ffffffffffffffffffffffffffffffffffffffff168152602001600115158152509080600181540180825580915050600190039060005260206000200160009091909190915060008201518160000160006101000a81548173ffffffffffffffffffffffffffffffffffffffff021916908373ffffffffffffffffffffffffffffffffffffffff16021790555060208201518160000160146101000a81548160ff02191690831515021790555050506000803373ffffffffffffffffffffffffffffffffffffffff1673ffffffffffffffffffffffffffffffffffffffff1681526020019081526020016000206040518060400160405280868152602001898152509080600181540180825580915050600190039060005260206000209060020201600090919091909150600082015181600001908051906020019061059b929190612308565b5060208201518160010190805190602001906105b8929190612308565b5050506000808673ffffffffffffffffffffffffffffffffffffffff1673ffffffffffffffffffffffffffffffffffffffff16815260200190815260200160002060405180604001604052808581526020018981525090806001815401808255809150506001900390600052602060002090600202016000909190919091506000820151816000019080519060200190610653929190612308565b506020820151816001019080519060200190610670929190612308565b505050505050505050505050565b60006040518060a001604052808781526020018681526020018581526020018481526020016001151581525090506000600160003373ffffffffffffffffffffffffffffffffffffffff1673ffffffffffffffffffffffffffffffffffffffff16815260200190815260200160002060003373ffffffffffffffffffffffffffffffffffffffff1673ffffffffffffffffffffffffffffffffffffffff1681526020019081526020016000209050808290806001815401808255809150506001900390600052602060002090600502016000909190919091506000820151816000019080519060200190610773929190612308565b506020820151816001019080519060200190610790929190612308565b5060408201518160020190805190602001906107ad929190612308565b5060608201518160030190805190602001906107ca929190612308565b5060808201518160040160006101000a81548160ff02191690831515021790555050506000803373ffffffffffffffffffffffffffffffffffffffff1673ffffffffffffffffffffffffffffffffffffffff16815260200190815260200160002060405180604001604052808581526020018781525090806001815401808255809150506001900390600052602060002090600202016000909190919091506000820151816000019080519060200190610885929190612308565b5060208201518160010190805190602001906108a2929190612308565b50505050505050505050565b60606000803373ffffffffffffffffffffffffffffffffffffffff1673ffffffffffffffffffffffffffffffffffffffff168152602001908152602001600020805480602002602001604051908101604052809291908181526020016000905b82821015610a64578382906000526020600020906002020160405180604001604052908160008201805461094190612fa5565b80601f016020809104026020016040519081016040528092919081815260200182805461096d90612fa5565b80156109ba5780601f1061098f576101008083540402835291602001916109ba565b820191906000526020600020905b81548152906001019060200180831161099d57829003601f168201915b505050505081526020016001820180546109d390612fa5565b80601f01602080910402602001604051908101604052809291908181526020018280546109ff90612fa5565b8015610a4c5780601f10610a2157610100808354040283529160200191610a4c565b820191906000526020600020905b815481529060010190602001808311610a2f57829003601f168201915b5050505050815250508152602001906001019061090e565b50505050905090565b60606000600160003373ffffffffffffffffffffffffffffffffffffffff1673ffffffffffffffffffffffffffffffffffffffff16815260200190815260200160002060003373ffffffffffffffffffffffffffffffffffffffff1673ffffffffffffffffffffffffffffffffffffffff168152602001908152602001600020805480602002602001604051908101604052809291908181526020016000905b82821015610da257838290600052602060002090600502016040518060a0016040529081600082018054610b4090612fa5565b80601f0160208091040260200160405190810160405280929190818152602001828054610b6c90612fa5565b8015610bb95780601f10610b8e57610100808354040283529160200191610bb9565b820191906000526020600020905b815481529060010190602001808311610b9c57829003601f168201915b50505050508152602001600182018054610bd290612fa5565b80601f0160208091040260200160405190810160405280929190818152602001828054610bfe90612fa5565b8015610c4b5780601f10610c2057610100808354040283529160200191610c4b565b820191906000526020600020905b815481529060010190602001808311610c2e57829003601f168201915b50505050508152602001600282018054610c6490612fa5565b80601f0160208091040260200160405190810160405280929190818152602001828054610c9090612fa5565b8015610cdd5780601f10610cb257610100808354040283529160200191610cdd565b820191906000526020600020905b815481529060010190602001808311610cc057829003601f168201915b50505050508152602001600382018054610cf690612fa5565b80601f0160208091040260200160405190810160405280929190818152602001828054610d2290612fa5565b8015610d6f5780601f10610d4457610100808354040283529160200191610d6f565b820191906000526020600020905b815481529060010190602001808311610d5257829003601f168201915b505050505081526020016004820160009054906101000a900460ff16151515158152505081526020019060010190610b0d565b5050505090506000805b8251811015610dfb57828181518110610dc857610dc7612fd7565b5b60200260200101516080015115610de8578180610de49061303f565b9250505b8080610df39061303f565b915050610dac565b5060008167ffffffffffffffff811115610e1857610e1761249b565b5b604051908082528060200260200182016040528015610e5157816020015b610e3e61238e565b815260200190600190039081610e365790505b5090506000805b8451811015610ee057848181518110610e7457610e73612fd7565b5b60200260200101516080015115610ecd57848181518110610e9857610e97612fd7565b5b6020026020010151838381518110610eb357610eb2612fd7565b5b60200260200101819052508180610ec99061303f565b9250505b8080610ed89061303f565b915050610e58565b508194505050505090565b6000600160008673ffffffffffffffffffffffffffffffffffffffff1673ffffffffffffffffffffffffffffffffffffffff16815260200190815260200160002060003373ffffffffffffffffffffffffffffffffffffffff1673ffffffffffffffffffffffffffffffffffffffff1681526020019081526020016000208054905090506000805b828110156111475787604051602001610f8c9190612f5f565b60405160208183030381529060405280519060200120600160008973ffffffffffffffffffffffffffffffffffffffff1673ffffffffffffffffffffffffffffffffffffffff16815260200190815260200160002060003373ffffffffffffffffffffffffffffffffffffffff1673ffffffffffffffffffffffffffffffffffffffff16815260200190815260200160002082815481106110305761102f612fd7565b5b9060005260206000209060050201600001604051602001611051919061311c565b6040516020818303038152906040528051906020012014156111345781806110789061303f565b9250506000600160008973ffffffffffffffffffffffffffffffffffffffff1673ffffffffffffffffffffffffffffffffffffffff16815260200190815260200160002060003373ffffffffffffffffffffffffffffffffffffffff1673ffffffffffffffffffffffffffffffffffffffff168152602001908152602001600020828154811061110b5761110a612fd7565b5b906000526020600020906005020160040160006101000a81548160ff0219169083151502179055505b808061113f9061303f565b915050610f73565b506000600260003373ffffffffffffffffffffffffffffffffffffffff1673ffffffffffffffffffffffffffffffffffffffff168152602001908152602001600020886040516111979190612f5f565b908152602001604051809103902080549050905060005b81811015611339578773ffffffffffffffffffffffffffffffffffffffff16600260003373ffffffffffffffffffffffffffffffffffffffff1673ffffffffffffffffffffffffffffffffffffffff1681526020019081526020016000208a60405161121a9190612f5f565b9081526020016040518091039020828154811061123a57611239612fd7565b5b9060005260206000200160000160009054906101000a900473ffffffffffffffffffffffffffffffffffffffff1673ffffffffffffffffffffffffffffffffffffffff16141561132657828061128f9061303f565b9350506000600260003373ffffffffffffffffffffffffffffffffffffffff1673ffffffffffffffffffffffffffffffffffffffff1681526020019081526020016000208a6040516112e19190612f5f565b9081526020016040518091039020828154811061130157611300612fd7565b5b9060005260206000200160000160146101000a81548160ff0219169083151502179055505b80806113319061303f565b9150506111ae565b5060028214156114b8576000803373ffffffffffffffffffffffffffffffffffffffff1673ffffffffffffffffffffffffffffffffffffffff168152602001908152602001600020604051806040016040528088815260200186815250908060018154018082558091505060019003906000526020600020906002020160009091909190915060008201518160000190805190602001906113db929190612308565b5060208201518160010190805190602001906113f8929190612308565b5050506000808873ffffffffffffffffffffffffffffffffffffffff1673ffffffffffffffffffffffffffffffffffffffff16815260200190815260200160002060405180604001604052808781526020018681525090806001815401808255809150506001900390600052602060002090600202016000909190919091506000820151816000019080519060200190611493929190612308565b5060208201518160010190805190602001906114b0929190612308565b5050506115a6565b6000803373ffffffffffffffffffffffffffffffffffffffff1673ffffffffffffffffffffffffffffffffffffffff16815260200190815260200160002060405180604001604052806040518060400160405280601681526020017f4572726f7220696e2072656d6f7665206163636573730000000000000000000081525081526020018681525090806001815401808255809150506001900390600052602060002090600202016000909190919091506000820151816000019080519060200190611585929190612308565b5060208201518160010190805190602001906115a2929190612308565b5050505b5050505050505050565b60606000600260003373ffffffffffffffffffffffffffffffffffffffff1673ffffffffffffffffffffffffffffffffffffffff168152602001908152602001600020836040516116019190612f5f565b9081526020016040518091039020805480602002602001604051908101604052809291908181526020016000905b828210156116ce578382906000526020600020016040518060400160405290816000820160009054906101000a900473ffffffffffffffffffffffffffffffffffffffff1673ffffffffffffffffffffffffffffffffffffffff1673ffffffffffffffffffffffffffffffffffffffff1681526020016000820160149054906101000a900460ff1615151515815250508152602001906001019061162f565b5050505090506000805b8251811015611727578281815181106116f4576116f3612fd7565b5b602002602001015160200151156117145781806117109061303f565b9250505b808061171f9061303f565b9150506116d8565b5060008167ffffffffffffffff8111156117445761174361249b565b5b60405190808252806020026020018201604052801561177d57816020015b61176a6123bf565b8152602001906001900390816117625790505b5090506000805b845181101561180c578481815181106117a05761179f612fd7565b5b602002602001015160200151156117f9578481815181106117c4576117c3612fd7565b5b60200260200101518383815181106117df576117de612fd7565b5b602002602001018190525081806117f59061303f565b9250505b80806118049061303f565b915050611784565b5081945050505050919050565b6000600160003373ffffffffffffffffffffffffffffffffffffffff1673ffffffffffffffffffffffffffffffffffffffff16815260200190815260200160002060003373ffffffffffffffffffffffffffffffffffffffff1673ffffffffffffffffffffffffffffffffffffffff16815260200190815260200160002090506000805b82805490508110156119ba57866040516020016118ba9190612f5f565b604051602081830303815290604052805190602001208382815481106118e3576118e2612fd7565b5b9060005260206000209060050201600001604051602001611904919061311c565b6040516020818303038152906040528051906020012014801561195c57506001151583828154811061193957611938612fd7565b5b906000526020600020906005020160040160009054906101000a900460ff161515145b156119a757600083828154811061197657611975612fd7565b5b906000526020600020906005020160040160006101000a81548160ff021916908315150217905550600191506119ba565b80806119b29061303f565b91505061189d565b50806119fb576040517f08c379a00000000000000000000000000000000000000000000000000000000081526004016119f2906131b6565b60405180910390fd5b6000600260003373ffffffffffffffffffffffffffffffffffffffff1673ffffffffffffffffffffffffffffffffffffffff16815260200190815260200160002087604051611a4a9190612f5f565b9081526020016040518091039020905060005b8180549050811015611dc65760011515828281548110611a8057611a7f612fd7565b5b9060005260206000200160000160149054906101000a900460ff1615151415611db357600060016000848481548110611abc57611abb612fd7565b5b9060005260206000200160000160009054906101000a900473ffffffffffffffffffffffffffffffffffffffff1673ffffffffffffffffffffffffffffffffffffffff1673ffffffffffffffffffffffffffffffffffffffff16815260200190815260200160002060003373ffffffffffffffffffffffffffffffffffffffff1673ffffffffffffffffffffffffffffffffffffffff168152602001908152602001600020905060005b8180549050811015611c7f5789604051602001611b839190612f5f565b60405160208183030381529060405280519060200120828281548110611bac57611bab612fd7565b5b9060005260206000209060050201600001604051602001611bcd919061311c565b60405160208183030381529060405280519060200120148015611c25575060011515828281548110611c0257611c01612fd7565b5b906000526020600020906005020160040160009054906101000a900460ff161515145b15611c6c576000828281548110611c3f57611c3e612fd7565b5b906000526020600020906005020160040160006101000a81548160ff021916908315150217905550611c7f565b8080611c779061303f565b915050611b66565b506000838381548110611c9557611c94612fd7565b5b9060005260206000200160000160146101000a81548160ff021916908315150217905550600080848481548110611ccf57611cce612fd7565b5b9060005260206000200160000160009054906101000a900473ffffffffffffffffffffffffffffffffffffffff1673ffffffffffffffffffffffffffffffffffffffff1673ffffffffffffffffffffffffffffffffffffffff16815260200190815260200160002060405180604001604052808981526020018881525090806001815401808255809150506001900390600052602060002090600202016000909190919091506000820151816000019080519060200190611d91929190612308565b506020820151816001019080519060200190611dae929190612308565b505050505b8080611dbe9061303f565b915050611a5d565b506000803373ffffffffffffffffffffffffffffffffffffffff1673ffffffffffffffffffffffffffffffffffffffff16815260200190815260200160002060405180604001604052808881526020018681525090806001815401808255809150506001900390600052602060002090600202016000909190919091506000820151816000019080519060200190611e5f929190612308565b506020820151816001019080519060200190611e7c929190612308565b50505050505050505050565b60606000600160003373ffffffffffffffffffffffffffffffffffffffff1673ffffffffffffffffffffffffffffffffffffffff16815260200190815260200160002060008473ffffffffffffffffffffffffffffffffffffffff1673ffffffffffffffffffffffffffffffffffffffff168152602001908152602001600020805480602002602001604051908101604052809291908181526020016000905b828210156121bd57838290600052602060002090600502016040518060a0016040529081600082018054611f5b90612fa5565b80601f0160208091040260200160405190810160405280929190818152602001828054611f8790612fa5565b8015611fd45780601f10611fa957610100808354040283529160200191611fd4565b820191906000526020600020905b815481529060010190602001808311611fb757829003601f168201915b50505050508152602001600182018054611fed90612fa5565b80601f016020809104026020016040519081016040528092919081815260200182805461201990612fa5565b80156120665780601f1061203b57610100808354040283529160200191612066565b820191906000526020600020905b81548152906001019060200180831161204957829003601f168201915b5050505050815260200160028201805461207f90612fa5565b80601f01602080910402602001604051908101604052809291908181526020018280546120ab90612fa5565b80156120f85780601f106120cd576101008083540402835291602001916120f8565b820191906000526020600020905b8154815290600101906020018083116120db57829003601f168201915b5050505050815260200160038201805461211190612fa5565b80601f016020809104026020016040519081016040528092919081815260200182805461213d90612fa5565b801561218a5780601f1061215f5761010080835404028352916020019161218a565b820191906000526020600020905b81548152906001019060200180831161216d57829003601f168201915b505050505081526020016004820160009054906101000a900460ff16151515158152505081526020019060010190611f28565b5050505090506000805b8251811015612216578281815181106121e3576121e2612fd7565b5b602002602001015160800151156122035781806121ff9061303f565b9250505b808061220e9061303f565b9150506121c7565b5060008167ffffffffffffffff8111156122335761223261249b565b5b60405190808252806020026020018201604052801561226c57816020015b61225961238e565b8152602001906001900390816122515790505b5090506000805b84518110156122fb5784818151811061228f5761228e612fd7565b5b602002602001015160800151156122e8578481815181106122b3576122b2612fd7565b5b60200260200101518383815181106122ce576122cd612fd7565b5b602002602001018190525081806122e49061303f565b9250505b80806122f39061303f565b915050612273565b5081945050505050919050565b82805461231490612fa5565b90600052602060002090601f016020900481019282612336576000855561237d565b82601f1061234f57805160ff191683800117855561237d565b8280016001018555821561237d579182015b8281111561237c578251825591602001919060010190612361565b5b50905061238a91906123f1565b5090565b6040518060a00160405280606081526020016060815260200160608152602001606081526020016000151581525090565b6040518060400160405280600073ffffffffffffffffffffffffffffffffffffffff1681526020016000151581525090565b5b8082111561240a5760008160009055506001016123f2565b5090565b6000604051905090565b600080fd5b600080fd5b600073ffffffffffffffffffffffffffffffffffffffff82169050919050565b600061244d82612422565b9050919050565b61245d81612442565b811461246857600080fd5b50565b60008135905061247a81612454565b92915050565b600080fd5b600080fd5b6000601f19601f8301169050919050565b7f4e487b7100000000000000000000000000000000000000000000000000000000600052604160045260246000fd5b6124d38261248a565b810181811067ffffffffffffffff821117156124f2576124f161249b565b5b80604052505050565b600061250561240e565b905061251182826124ca565b919050565b600067ffffffffffffffff8211156125315761253061249b565b5b61253a8261248a565b9050602081019050919050565b82818337600083830152505050565b600061256961256484612516565b6124fb565b90508281526020810184848401111561258557612584612485565b5b612590848285612547565b509392505050565b600082601f8301126125ad576125ac612480565b5b81356125bd848260208601612556565b91505092915050565b6000806000606084860312156125df576125de612418565b5b60006125ed8682870161246b565b935050602084013567ffffffffffffffff81111561260e5761260d61241d565b5b61261a86828701612598565b925050604084013567ffffffffffffffff81111561263b5761263a61241d565b5b61264786828701612598565b9150509250925092565b600080600080600080600060e0888a0312156126705761266f612418565b5b600088013567ffffffffffffffff81111561268e5761268d61241d565b5b61269a8a828b01612598565b975050602088013567ffffffffffffffff8111156126bb576126ba61241d565b5b6126c78a828b01612598565b965050604088013567ffffffffffffffff8111156126e8576126e761241d565b5b6126f48a828b01612598565b955050606088013567ffffffffffffffff8111156127155761271461241d565b5b6127218a828b01612598565b94505060806127328a828b0161246b565b93505060a088013567ffffffffffffffff8111156127535761275261241d565b5b61275f8a828b01612598565b92505060c088013567ffffffffffffffff8111156127805761277f61241d565b5b61278c8a828b01612598565b91505092959891949750929550565b600080600080600060a086880312156127b7576127b6612418565b5b600086013567ffffffffffffffff8111156127d5576127d461241d565b5b6127e188828901612598565b955050602086013567ffffffffffffffff8111156128025761280161241d565b5b61280e88828901612598565b945050604086013567ffffffffffffffff81111561282f5761282e61241d565b5b61283b88828901612598565b935050606086013567ffffffffffffffff81111561285c5761285b61241d565b5b61286888828901612598565b925050608086013567ffffffffffffffff8111156128895761288861241d565b5b61289588828901612598565b9150509295509295909350565b600081519050919050565b600082825260208201905092915050565b6000819050602082019050919050565b600081519050919050565b600082825260208201905092915050565b60005b838110156129085780820151818401526020810190506128ed565b83811115612917576000848401525b50505050565b6000612928826128ce565b61293281856128d9565b93506129428185602086016128ea565b61294b8161248a565b840191505092915050565b60006040830160008301518482036000860152612973828261291d565b9150506020830151848203602086015261298d828261291d565b9150508091505092915050565b60006129a68383612956565b905092915050565b6000602082019050919050565b60006129c6826128a2565b6129d081856128ad565b9350836020820285016129e2856128be565b8060005b85811015612a1e57848403895281516129ff858261299a565b9450612a0a836129ae565b925060208a019950506001810190506129e6565b50829750879550505050505092915050565b60006020820190508181036000830152612a4a81846129bb565b905092915050565b600081519050919050565b600082825260208201905092915050565b6000819050602082019050919050565b60008115159050919050565b612a9381612a7e565b82525050565b600060a0830160008301518482036000860152612ab6828261291d565b91505060208301518482036020860152612ad0828261291d565b91505060408301518482036040860152612aea828261291d565b91505060608301518482036060860152612b04828261291d565b9150506080830151612b196080860182612a8a565b508091505092915050565b6000612b308383612a99565b905092915050565b6000602082019050919050565b6000612b5082612a52565b612b5a8185612a5d565b935083602082028501612b6c85612a6e565b8060005b85811015612ba85784840389528151612b898582612b24565b9450612b9483612b38565b925060208a01995050600181019050612b70565b50829750879550505050505092915050565b60006020820190508181036000830152612bd48184612b45565b905092915050565b600080600080600060a08688031215612bf857612bf7612418565b5b600086013567ffffffffffffffff811115612c1657612c1561241d565b5b612c2288828901612598565b9550506020612c338882890161246b565b945050604086013567ffffffffffffffff811115612c5457612c5361241d565b5b612c6088828901612598565b935050606086013567ffffffffffffffff811115612c8157612c8061241d565b5b612c8d88828901612598565b925050608086013567ffffffffffffffff811115612cae57612cad61241d565b5b612cba88828901612598565b9150509295509295909350565b600060208284031215612cdd57612cdc612418565b5b600082013567ffffffffffffffff811115612cfb57612cfa61241d565b5b612d0784828501612598565b91505092915050565b600081519050919050565b600082825260208201905092915050565b6000819050602082019050919050565b612d4581612442565b82525050565b604082016000820151612d616000850182612d3c565b506020820151612d746020850182612a8a565b50505050565b6000612d868383612d4b565b60408301905092915050565b6000602082019050919050565b6000612daa82612d10565b612db48185612d1b565b9350612dbf83612d2c565b8060005b83811015612df0578151612dd78882612d7a565b9750612de283612d92565b925050600181019050612dc3565b5085935050505092915050565b60006020820190508181036000830152612e178184612d9f565b905092915050565b60008060008060808587031215612e3957612e38612418565b5b600085013567ffffffffffffffff811115612e5757612e5661241d565b5b612e6387828801612598565b945050602085013567ffffffffffffffff811115612e8457612e8361241d565b5b612e9087828801612598565b935050604085013567ffffffffffffffff811115612eb157612eb061241d565b5b612ebd87828801612598565b925050606085013567ffffffffffffffff811115612ede57612edd61241d565b5b612eea87828801612598565b91505092959194509250565b600060208284031215612f0c57612f0b612418565b5b6000612f1a8482850161246b565b91505092915050565b600081905092915050565b6000612f39826128ce565b612f438185612f23565b9350612f538185602086016128ea565b80840191505092915050565b6000612f6b8284612f2e565b915081905092915050565b7f4e487b7100000000000000000000000000000000000000000000000000000000600052602260045260246000fd5b60006002820490506001821680612fbd57607f821691505b60208210811415612fd157612fd0612f76565b5b50919050565b7f4e487b7100000000000000000000000000000000000000000000000000000000600052603260045260246000fd5b7f4e487b7100000000000000000000000000000000000000000000000000000000600052601160045260246000fd5b6000819050919050565b600061304a82613035565b91507fffffffffffffffffffffffffffffffffffffffffffffffffffffffffffffffff82141561307d5761307c613006565b5b600182019050919050565b60008190508160005260206000209050919050565b600081546130aa81612fa5565b6130b48186612f23565b945060018216600081146130cf57600181146130e057613113565b60ff19831686528186019350613113565b6130e985613088565b60005b8381101561310b578154818901526001820191506020810190506130ec565b838801955050505b50505092915050565b6000613128828461309d565b915081905092915050565b600082825260208201905092915050565b7f46696c65206e6f7420666f756e64206f7220616c72656164792064656c65746560008201527f6400000000000000000000000000000000000000000000000000000000000000602082015250565b60006131a0602183613133565b91506131ab82613144565b604082019050919050565b600060208201905081810360008301526131cf81613193565b905091905056fea2646970667358221220140296db2889d1253fc5d37f3515f249edc5e4076e2cf8a342f2df8cee6e756f64736f6c63430008090033",
  "linkReferences": {},
  "deployedLinkReferences": {}
}